{
  "transactions": [
    {
      "hash": "0x5ec8ffeee0c82ea42be1b7c7fcdfd7dc1f6ff41f4fd24950d84423009c65571e",
      "transactionType": "CALL",
      "contractName": null,
      "contractAddress": "0xd2a632d8a8b67c2c4398c255cbd7af8dd7236198",
      "function": "deployProxy(address,uint256,bytes)",
      "arguments": [
        "0x0F99e7Ea74903AfCB7224d0354fD7428A6f92917",
        "95326562283964339799808557925863817774876798124419006875338880535233246393233",
        "0xcd6dc6870000000000000000000000004b24116df4c31c40ab5b3cb3ba3ffe743a3469780000000000000000000000000000000100000000000000000000000000000001"
      ],
      "transaction": {
        "from": "0x4b24116df4c31c40ab5b3cb3ba3ffe743a346978",
        "to": "0xd2a632d8a8b67c2c4398c255cbd7af8dd7236198",
        "gas": "0x3b652",
        "value": "0x0",
        "input": "0x5d84121a0000000000000000000000000f99e7ea74903afcb7224d0354fd7428a6f92917d2c0ec1779c639ba5672746b0a99f70401075e8ee85af8ed1a9d04488ac5f39100000000000000000000000000000000000000000000000000000000000000600000000000000000000000000000000000000000000000000000000000000044cd6dc6870000000000000000000000004b24116df4c31c40ab5b3cb3ba3ffe743a346978000000000000000000000000000000010000000000000000000000000000000100000000000000000000000000000000000000000000000000000000",
        "nonce": "0x5",
        "chainId": "0xaa36a7"
      },
      "additionalContracts": [
        {
          "transactionType": "CREATE2",
          "contractName": null,
          "address": "0x2167d6df85bc76f22b7f150220740444dc257aaf",
          "initCode": "0x3d604d80600a3d3981f3363d3d373d3d3d363d73917c561a74df398646e06f3ffaa51db8e8330c5a5af43d82803e903d91602b57fd5bf380202acb864663cca198c25d88a5c457a0f034833c1a922458ea879fd0adf2fc"
        }
      ],
      "isFixedGasLimit": false
    },
    {
      "hash": "0x7ba07cfc88e65563a2ed43746ae6ed4a07338d05934e57bd92cfd186e70ee1ed",
      "transactionType": "CREATE",
      "contractName": "KreditoController",
      "contractAddress": "0xe498cbc0f0ed0b9059fec2a7f1275834108915b0",
      "function": null,
      "arguments": [
        "0x4B24116Df4C31c40aB5B3cb3bA3Ffe743A346978",
        "0x4B24116Df4C31c40aB5B3cb3bA3Ffe743A346978",
        "0x9481555486db711081424d25f193ca60bb54f9b6e9a7c4032fac5abc95270580",
        "18446744073709551615"
      ],
      "transaction": {
        "from": "0x4b24116df4c31c40ab5b3cb3ba3ffe743a346978",
        "to": null,
        "gas": "0x13f251",
        "value": "0x0",
        "input": "0x608060405234801561000f575f5ffd5b506040516110cf3803806110cf83398101604081905261002e91610176565b6100385f856100b2565b506100637f114e74f6ea3bd819998f78687bfcb11b140da08e9b7d222fa9c1f1ba1f2aa122846100b2565b50600191909155600380546001600160401b03909216600160a01b02600160a01b600160e01b0319909216919091179055505072010000000000000000000000000000000100006004556101ce565b5f828152602081815260408083206001600160a01b038516845290915281205460ff16610152575f838152602081815260408083206001600160a01b03861684529091529020805460ff1916600117905561010a3390565b6001600160a01b0316826001600160a01b0316847f2f8788117e7eff1d82e926ec794901d17c78024a50270940304540a733656f0d60405160405180910390a4506001610155565b505f5b92915050565b80516001600160a01b0381168114610171575f5ffd5b919050565b5f5f5f5f60808587031215610189575f5ffd5b6101928561015b565b93506101a06020860161015b565b6040860151606087015191945092506001600160401b03811681146101c3575f5ffd5b939692955090935050565b610ef4806101db5f395ff3fe608060405234801561000f575f5ffd5b5060043610610148575f3560e01c80638cfb3088116100bf578063c59a138b11610079578063c59a138b146102fc578063d547741f1461031e578063edc1acf714610331578063f3068a0014610344578063fa9724921461034d578063fbff18df14610360575f5ffd5b80638cfb30881461026a57806391d148541461029e5780639316009c146102b1578063a217fddf146102ba578063ad6cf0a5146102c1578063c5590033146102e9575f5ffd5b806336568abe1161011057806336568abe146101f75780634e543b261461020a57806352d324161461021d578063539ac97c1461023057806365b2a8631461024357806382aefa2414610256575f5ffd5b806301ffc9a71461014c57806304f3bcec1461017457806307ecb8331461019f578063248a9ca3146101b45780632f2ff15d146101e4575b5f5ffd5b61015f61015a366004610afb565b610373565b60405190151581526020015b60405180910390f35b600354610187906001600160a01b031681565b6040516001600160a01b03909116815260200161016b565b6101b26101ad366004610b22565b6103a9565b005b6101d66101c2366004610b49565b5f9081526020819052604090206001015490565b60405190815260200161016b565b6101b26101f2366004610b74565b6103f2565b6101b2610205366004610b74565b61041c565b6101b2610218366004610ba2565b610454565b6101b261022b366004610b49565b610492565b6101b261023e366004610b49565b6104ba565b6101b2610251366004610c02565b6104e2565b6101d65f516020610ed45f395f51905f5281565b60035461028590600160a01b900467ffffffffffffffff1681565b60405167ffffffffffffffff909116815260200161016b565b61015f6102ac366004610b74565b6105bd565b6101d660045481565b6101d65f81565b6102d46102cf366004610c41565b6105e5565b6040805192835260208301919091520161016b565b6101b26102f7366004610cc3565b61082a565b61015f61030a366004610b49565b60056020525f908152604090205460ff1681565b6101b261032c366004610b74565b6108f4565b6101b261033f366004610ba2565b610918565b6101d660015481565b600254610187906001600160a01b031681565b6101d661036e366004610c02565b610956565b5f6001600160e01b03198216637965db0b60e01b14806103a357506301ffc9a760e01b6001600160e01b03198316145b92915050565b5f6103b381610968565b6003805467ffffffffffffffff60a01b1916600160a01b67ffffffffffffffff8516021790556040515f516020610eb45f395f51905f52905f90a15050565b5f8281526020819052604090206001015461040c81610968565b6104168383610975565b50505050565b6001600160a01b03811633146104455760405163334bd91960e11b815260040160405180910390fd5b61044f8282610a04565b505050565b5f61045e81610968565b600380546001600160a01b0319166001600160a01b0384161790556040515f516020610eb45f395f51905f52905f90a15050565b5f61049c81610968565b60018290556040515f516020610eb45f395f51905f52905f90a15050565b5f6104c481610968565b60048290556040515f516020610eb45f395f51905f52905f90a15050565b5f516020610ed45f395f51905f526104f981610968565b5f6105048484610a6d565b600354604080516331cfbf6f60e01b8152600481018490526024810191909152600660448201526519195b9a595960d21b60648201529192506001600160a01b0316906331cfbf6f906084015f604051808303815f87803b158015610567575f5ffd5b505af1158015610579573d5f5f3e3d5ffd5b50505050807f9b7dec0fb444678b885cb7100bf4061579b7eaa6849d8c51e4a8984b23c082eb85856040516105af929190610d57565b60405180910390a250505050565b5f918252602082815260408084206001600160a01b0393909316845291905290205460ff1690565b5f5f5f516020610ed45f395f51905f526105fe81610968565b6003546001600160a01b031661062757604051630d09117560e41b815260040160405180910390fd5b6002546001600160a01b031661065057604051634ec20e2f60e11b815260040160405180910390fd5b61065a8888610a6d565b5f8181526005602052604090205490925060ff161561069457604051630a57e7f960e31b8152600481018390526024015b60405180910390fd5b600160055f8481526020019081526020015f205f6101000a81548160ff02191690831515021790555060025f9054906101000a90046001600160a01b03166001600160a01b03166385f3e6438989895f60035f9054906101000a90046001600160a01b0316600454600360149054906101000a900467ffffffffffffffff166040518863ffffffff1660e01b81526004016107359796959493929190610d72565b6020604051808303815f875af1158015610751573d5f5f3e3d5ffd5b505050506040513d601f19601f820116820180604052508101906107759190610dc7565b6003546040516376bddb9560e11b81529194506001600160a01b03169063ed7bb72a906107ac9085908a908a908a90600401610dde565b5f604051808303815f87803b1580156107c3575f5ffd5b505af11580156107d5573d5f5f3e3d5ffd5b50505050856001600160a01b0316827faab65750c828c4f3445a99fa1df36b105916996b8ad6c8a7b96e68322df28e278a8a8760405161081793929190610e2e565b60405180910390a3509550959350505050565b5f516020610ed45f395f51905f5261084181610968565b5f61084c8686610a6d565b6003546040516331cfbf6f60e01b81529192506001600160a01b0316906331cfbf6f9061088190849088908890600401610e51565b5f604051808303815f87803b158015610898575f5ffd5b505af11580156108aa573d5f5f3e3d5ffd5b50505050807f8a979ee443e267bf0699140bdad48b1371e276c41b1181861cee23a8f8f326a6878787876040516108e49493929190610e73565b60405180910390a2505050505050565b5f8281526020819052604090206001015461090e81610968565b6104168383610a04565b5f61092281610968565b600280546001600160a01b0319166001600160a01b0384161790556040515f516020610eb45f395f51905f52905f90a15050565b5f6109618383610a6d565b9392505050565b6109728133610abe565b50565b5f61098083836105bd565b6109fd575f838152602081815260408083206001600160a01b03861684529091529020805460ff191660011790556109b53390565b6001600160a01b0316826001600160a01b0316847f2f8788117e7eff1d82e926ec794901d17c78024a50270940304540a733656f0d60405160405180910390a45060016103a3565b505f6103a3565b5f610a0f83836105bd565b156109fd575f838152602081815260408083206001600160a01b0386168085529252808320805460ff1916905551339286917ff6391f5c32d9c69d2a47ea670b442974b53935d1edc7fd64eb21e047a839171b9190a45060016103a3565b5f6001548383604051610a81929190610ea4565b604051908190038120610aa09291602001918252602082015260400190565b60405160208183030381529060405280519060200120905092915050565b610ac882826105bd565b610af75760405163e2517d3f60e01b81526001600160a01b03821660048201526024810183905260440161068b565b5050565b5f60208284031215610b0b575f5ffd5b81356001600160e01b031981168114610961575f5ffd5b5f60208284031215610b32575f5ffd5b813567ffffffffffffffff81168114610961575f5ffd5b5f60208284031215610b59575f5ffd5b5035919050565b6001600160a01b0381168114610972575f5ffd5b5f5f60408385031215610b85575f5ffd5b823591506020830135610b9781610b60565b809150509250929050565b5f60208284031215610bb2575f5ffd5b813561096181610b60565b5f5f83601f840112610bcd575f5ffd5b50813567ffffffffffffffff811115610be4575f5ffd5b602083019150836020828501011115610bfb575f5ffd5b9250929050565b5f5f60208385031215610c13575f5ffd5b823567ffffffffffffffff811115610c29575f5ffd5b610c3585828601610bbd565b90969095509350505050565b5f5f5f5f5f60608688031215610c55575f5ffd5b853567ffffffffffffffff811115610c6b575f5ffd5b610c7788828901610bbd565b9096509450506020860135610c8b81610b60565b9250604086013567ffffffffffffffff811115610ca6575f5ffd5b610cb288828901610bbd565b969995985093965092949392505050565b5f5f5f5f60408587031215610cd6575f5ffd5b843567ffffffffffffffff811115610cec575f5ffd5b610cf887828801610bbd565b909550935050602085013567ffffffffffffffff811115610d17575f5ffd5b610d2387828801610bbd565b95989497509550505050565b81835281816020850137505f828201602090810191909152601f909101601f19169091010190565b602081525f610d6a602083018486610d2f565b949350505050565b60c081525f610d8560c08301898b610d2f565b6001600160a01b039788166020840152958716604083015250929094166060830152608082015267ffffffffffffffff90921660a09092019190915292915050565b5f60208284031215610dd7575f5ffd5b5051919050565b84815260018060a01b0384166020820152608060408201526008608082015267185c1c1c9bdd995960c21b60a082015260c060608201525f610e2460c083018486610d2f565b9695505050505050565b604081525f610e41604083018587610d2f565b9050826020830152949350505050565b838152604060208201525f610e6a604083018486610d2f565b95945050505050565b604081525f610e86604083018688610d2f565b8281036020840152610e99818587610d2f565b979650505050505050565b818382375f910190815291905056fefe891c6ab12cf73707f8deb6600c12ba382e4cc31eb2b0a2754cad13075ed2d1114e74f6ea3bd819998f78687bfcb11b140da08e9b7d222fa9c1f1ba1f2aa1220000000000000000000000004b24116df4c31c40ab5b3cb3ba3ffe743a3469780000000000000000000000004b24116df4c31c40ab5b3cb3ba3ffe743a3469789481555486db711081424d25f193ca60bb54f9b6e9a7c4032fac5abc95270580000000000000000000000000000000000000000000000000ffffffffffffffff",
        "nonce": "0x6",
        "chainId": "0xaa36a7"
      },
      "additionalContracts": [],
      "isFixedGasLimit": false
    },
    {
      "hash": "0xc4bb951883d208671c313844c41cd5ee2b63f11cda7146af082b2228a09f0289",
      "transactionType": "CREATE",
      "contractName": "KreditoResolver",
      "contractAddress": "0xe68f49f6256a2af1702855dc62b82aff6fd65f0e",
      "function": null,
      "arguments": [
        "0x4B24116Df4C31c40aB5B3cb3bA3Ffe743A346978",
        "0xE498cbC0F0ED0b9059FEc2a7F1275834108915B0"
      ],
      "transaction": {
        "from": "0x4b24116df4c31c40ab5b3cb3ba3ffe743a346978",
        "to": null,
        "gas": "0x17c90c",
        "value": "0x0",
        "input": "0x6080604052348015600e575f5ffd5b506040516114a63803806114a6833981016040819052602b9160a0565b5f80546001600160a01b038085166001600160a01b03199283161783556001805491851691909216811790915560405190917f74a88b186cc458e285362050fe7e4002b1a61f011a86294ddff3456e81da8ff291a2505060cc565b80516001600160a01b0381168114609b575f5ffd5b919050565b5f5f6040838503121560b0575f5ffd5b60b7836086565b915060c3602084016086565b90509250929050565b6113cd806100d95f395ff3fe608060405234801561000f575f5ffd5b50600436106100cb575f3560e01c80633b3b57de116100885780639061b923116100635780639061b923146101e0578063d5fa2b00146101f3578063ed7bb72a14610206578063f851a44014610219575f5ffd5b80633b3b57de1461018557806355cc4e57146101ad57806359d1d43c146101c0575f5ffd5b806301ffc9a7146100cf57806310f13a8c146100f75780631493ecae1461010c5780631d1438481461014c578063247331361461015f57806331cfbf6f14610172575b5f5ffd5b6100e26100dd366004610bd6565b61022b565b60405190151581526020015b60405180910390f35b61010a610105366004610c48565b6102b2565b005b61013461011a366004610cbf565b60026020525f90815260409020546001600160a01b031681565b6040516001600160a01b0390911681526020016100ee565b600154610134906001600160a01b031681565b61010a61016d366004610d16565b6102c6565b61010a610180366004610d7c565b610354565b610134610193366004610cbf565b5f908152600360205260409020546001600160a01b031690565b61010a6101bb366004610dde565b610411565b6101d36101ce366004610d7c565b610484565b6040516100ee9190610e25565b6101d36101ee366004610e37565b610545565b61010a610201366004610ea1565b610718565b61010a610214366004610ecb565b6107ca565b5f54610134906001600160a01b031681565b5f6001600160e01b031982166301ffc9a760e01b148061025b57506001600160e01b03198216639061b92360e01b145b8061027657506001600160e01b03198216631d9dabef60e11b145b8061029157506001600160e01b031982166378e5bf0360e11b145b806102ac57506001600160e01b03198216631674750f60e21b145b92915050565b6102bf8585858585610a07565b5050505050565b8281146102e9576040516001621398b960e31b0319815260040160405180910390fd5b5f5b8381101561034c576103448686868481811061030957610309610f52565b905060200281019061031b9190610f66565b86868681811061032d5761032d610f52565b905060200281019061033f9190610f66565b610a07565b6001016102eb565b505050505050565b6001546001600160a01b0316331461037f576040516354ec506360e01b815260040160405180910390fd5b5f838152600460205260409081902081516d6b72656469746f2e73746174757360901b8152600e810191909152905190819003602e0190206103c282848361103d565b506040516d6b72656469746f2e73746174757360901b8152600e016040518091039020835f5160206113ad5f395f51905f52848460405161040492919061111e565b60405180910390a3505050565b5f546001600160a01b0316331461043b57604051637bfa4b9f60e01b815260040160405180910390fd5b600180546001600160a01b0319166001600160a01b0383169081179091556040517f74a88b186cc458e285362050fe7e4002b1a61f011a86294ddff3456e81da8ff2905f90a250565b606060045f8581526020019081526020015f2083836040516104a7929190611156565b908152602001604051809103902080546104c090610fbc565b80601f01602080910402602001604051908101604052809291908181526020018280546104ec90610fbc565b80156105375780601f1061050e57610100808354040283529160200191610537565b820191905f5260205f20905b81548152906001019060200180831161051a57829003601f168201915b505050505090509392505050565b60605f6105556004828587611165565b61055e9161118c565b9050636262541160e11b6001600160e01b03198216016105cf575f6105868460048188611165565b8101906105939190610cbf565b5f908152600360209081526040918290205482516001600160a01b03909116818301528251808203909201825282019091529250610710915050565b63298b8af160e21b6001600160e01b031982160161065d575f806105f68560048189611165565b81019061060391906111c4565b9150915060045f8381526020019081526020015f2081604051610626919061127e565b90815260200160405180910390206040516020016106449190611294565b6040516020818303038152906040529350505050610710565b63071a40fd60e11b6001600160e01b03198216016106e7575f806106848560048189611165565b810190610691919061131b565b91509150603c81036106cd575f828152600360205260409020546106bd906001600160a01b0316610ba9565b6040516020016106449190610e25565b60408051602080820183525f825291516106449201610e25565b604051637b1c461b60e01b81526001600160e01b03198216600482015260240160405180910390fd5b949350505050565b5f828152600260205260409020546001600160a01b0316331480159061074957506001546001600160a01b03163314155b15610767576040516330cd747160e01b815260040160405180910390fd5b5f8281526003602090815260409182902080546001600160a01b0319166001600160a01b038516908117909155915191825283917f52d7d861f09ab3d26239d492e8968629f95e9e318cf0b73bfddc441522a15fd2910160405180910390a25050565b6001546001600160a01b031633146107f5576040516354ec506360e01b815260040160405180910390fd5b5f868152600260205260409020546001600160a01b0316156108295760405162dc149f60e41b815260040160405180910390fd5b5f86815260026020908152604080832080546001600160a01b03199081166001600160a01b038b16908117909255600384528285208054909116909117905560049091529081902081516d6b72656469746f2e73746174757360901b8152600e810191909152905190819003602e0190206108a584868361103d565b505f86815260046020526040908190208151753632b73239b4b3b730b61730ba3a32b9ba30ba34b7b760511b8152601681019190915290519081900360360190206108f182848361103d565b506040516001600160a01b0386169087907fbf42d177043d3f5d36431e9acafbc33c25b76cc3156f7733a194c4e9d4ffa3da905f90a36040516001600160a01b038616815286907f52d7d861f09ab3d26239d492e8968629f95e9e318cf0b73bfddc441522a15fd29060200160405180910390a26040516d6b72656469746f2e73746174757360901b8152600e016040518091039020865f5160206113ad5f395f51905f5286866040516109a692919061111e565b60405180910390a3604051753632b73239b4b3b730b61730ba3a32b9ba30ba34b7b760511b81526016016040518091039020865f5160206113ad5f395f51905f5284846040516109f792919061133b565b60405180910390a3505050505050565b5f8484604051610a18929190611156565b60408051918290038220828201909152600e82526d6b72656469746f2e73746174757360901b60209092019190915290507f6c7aa77e8b606a5be5230a4b474e59f033bed0e8b4c728778d0c92342a9ebd92811480610ac457506040805180820190915260168152753632b73239b4b3b730b61730ba3a32b9ba30ba34b7b760511b6020909101527f331044121fb000b2122127c9db63cdf053d5432d648280346cfe32187834979581145b15610af9576001546001600160a01b03163314610af4576040516354ec506360e01b815260040160405180910390fd5b610b2f565b5f868152600260205260409020546001600160a01b03163314610b2f576040516330cd747160e01b815260040160405180910390fd5b828260045f8981526020019081526020015f208787604051610b52929190611156565b90815260200160405180910390209182610b6d92919061103d565b508484604051610b7e929190611156565b6040518091039020865f5160206113ad5f395f51905f52878787876040516109f7949392919061137b565b60408051601480825281830190925260609160208201818036833750505060609290921b60208301525090565b5f60208284031215610be6575f5ffd5b81356001600160e01b031981168114610bfd575f5ffd5b9392505050565b5f5f83601f840112610c14575f5ffd5b5081356001600160401b03811115610c2a575f5ffd5b602083019150836020828501011115610c41575f5ffd5b9250929050565b5f5f5f5f5f60608688031215610c5c575f5ffd5b8535945060208601356001600160401b03811115610c78575f5ffd5b610c8488828901610c04565b90955093505060408601356001600160401b03811115610ca2575f5ffd5b610cae88828901610c04565b969995985093965092949392505050565b5f60208284031215610ccf575f5ffd5b5035919050565b5f5f83601f840112610ce6575f5ffd5b5081356001600160401b03811115610cfc575f5ffd5b6020830191508360208260051b8501011115610c41575f5ffd5b5f5f5f5f5f60608688031215610d2a575f5ffd5b8535945060208601356001600160401b03811115610d46575f5ffd5b610d5288828901610cd6565b90955093505060408601356001600160401b03811115610d70575f5ffd5b610cae88828901610cd6565b5f5f5f60408486031215610d8e575f5ffd5b8335925060208401356001600160401b03811115610daa575f5ffd5b610db686828701610c04565b9497909650939450505050565b80356001600160a01b0381168114610dd9575f5ffd5b919050565b5f60208284031215610dee575f5ffd5b610bfd82610dc3565b5f81518084528060208401602086015e5f602082860101526020601f19601f83011685010191505092915050565b602081525f610bfd6020830184610df7565b5f5f5f5f60408587031215610e4a575f5ffd5b84356001600160401b03811115610e5f575f5ffd5b610e6b87828801610c04565b90955093505060208501356001600160401b03811115610e89575f5ffd5b610e9587828801610c04565b95989497509550505050565b5f5f60408385031215610eb2575f5ffd5b82359150610ec260208401610dc3565b90509250929050565b5f5f5f5f5f5f60808789031215610ee0575f5ffd5b86359550610ef060208801610dc3565b945060408701356001600160401b03811115610f0a575f5ffd5b610f1689828a01610c04565b90955093505060608701356001600160401b03811115610f34575f5ffd5b610f4089828a01610c04565b979a9699509497509295939492505050565b634e487b7160e01b5f52603260045260245ffd5b5f5f8335601e19843603018112610f7b575f5ffd5b8301803591506001600160401b03821115610f94575f5ffd5b602001915036819003821315610c41575f5ffd5b634e487b7160e01b5f52604160045260245ffd5b600181811c90821680610fd057607f821691505b602082108103610fee57634e487b7160e01b5f52602260045260245ffd5b50919050565b601f82111561103857805f5260205f20601f840160051c810160208510156110195750805b601f840160051c820191505b818110156102bf575f8155600101611025565b505050565b6001600160401b0383111561105457611054610fa8565b611068836110628354610fbc565b83610ff4565b5f601f841160018114611099575f85156110825750838201355b5f19600387901b1c1916600186901b1783556102bf565b5f83815260208120601f198716915b828110156110c857868501358255602094850194600190920191016110a8565b50868210156110e4575f1960f88860031b161c19848701351681555b505060018560011b0183555050505050565b81835281816020850137505f828201602090810191909152601f909101601f19169091010190565b60408152600e60408201526d6b72656469746f2e73746174757360901b6060820152608060208201525f6107106080830184866110f6565b818382375f9101908152919050565b5f5f85851115611173575f5ffd5b8386111561117f575f5ffd5b5050820193919092039150565b80356001600160e01b031981169060048410156111bd576001600160e01b0319600485900360031b81901b82161691505b5092915050565b5f5f604083850312156111d5575f5ffd5b8235915060208301356001600160401b038111156111f1575f5ffd5b8301601f81018513611201575f5ffd5b80356001600160401b0381111561121a5761121a610fa8565b604051601f8201601f19908116603f011681016001600160401b038111828210171561124857611248610fa8565b60405281815282820160200187101561125f575f5ffd5b816020840160208301375f602083830101528093505050509250929050565b5f82518060208501845e5f920191825250919050565b602081525f5f83546112a581610fbc565b806020860152600182165f81146112c357600181146112df57611310565b60ff1983166040870152604082151560051b8701019350611310565b865f5260205f205f5b83811015611307578154888201604001526001909101906020016112e8565b87016040019450505b509195945050505050565b5f5f6040838503121561132c575f5ffd5b50508035926020909101359150565b6040815260166040820152753632b73239b4b3b730b61730ba3a32b9ba30ba34b7b760511b6060820152608060208201525f6107106080830184866110f6565b604081525f61138e6040830186886110f6565b82810360208401526113a18185876110f6565b97965050505050505056fe448bc014f1536726cf8d54ff3d6481ed3cbc683c2591ca204274009afa09b1a10000000000000000000000004b24116df4c31c40ab5b3cb3ba3ffe743a346978000000000000000000000000e498cbc0f0ed0b9059fec2a7f1275834108915b0",
        "nonce": "0x7",
        "chainId": "0xaa36a7"
      },
      "additionalContracts": [],
      "isFixedGasLimit": false
    },
    {
      "hash": "0x5c691156264189558506a707fdaef64df63e70f72ff44a1efdb37adda54287bd",
      "transactionType": "CALL",
      "contractName": "KreditoController",
      "contractAddress": "0xe498cbc0f0ed0b9059fec2a7f1275834108915b0",
      "function": "setResolver(address)",
      "arguments": [
        "0xE68F49F6256a2aF1702855dc62B82afF6Fd65F0E"
      ],
      "transaction": {
        "from": "0x4b24116df4c31c40ab5b3cb3ba3ffe743a346978",
        "to": "0xe498cbc0f0ed0b9059fec2a7f1275834108915b0",
        "gas": "0xab66",
        "value": "0x0",
        "input": "0x4e543b26000000000000000000000000e68f49f6256a2af1702855dc62b82aff6fd65f0e",
        "nonce": "0x8",
        "chainId": "0xaa36a7"
      },
      "additionalContracts": [],
      "isFixedGasLimit": false
    },
    {
      "hash": "0xf2d9039500b41a186b36d498a9c12216d7d9ee3914315037e563739723158023",
      "transactionType": "CALL",
      "contractName": "KreditoController",
      "contractAddress": "0xe498cbc0f0ed0b9059fec2a7f1275834108915b0",
      "function": "setSubRegistry(address)",
      "arguments": [
        "0x2167d6DF85bC76f22b7f150220740444DC257AAf"
      ],
      "transaction": {
        "from": "0x4b24116df4c31c40ab5b3cb3ba3ffe743a346978",
        "to": "0xe498cbc0f0ed0b9059fec2a7f1275834108915b0",
        "gas": "0xfe41",
        "value": "0x0",
        "input": "0xedc1acf70000000000000000000000002167d6df85bc76f22b7f150220740444dc257aaf",
        "nonce": "0x9",
        "chainId": "0xaa36a7"
      },
      "additionalContracts": [],
      "isFixedGasLimit": false
    },
    {
      "hash": "0x9b180ffd434c5b9d17926774956b10726452dba2203e0d232f5b73cc79582438",
      "transactionType": "CALL",
      "contractName": null,
      "contractAddress": "0x2167d6df85bc76f22b7f150220740444dc257aaf",
      "function": "grantRootRoles(uint256,address)",
      "arguments": [
        "1",
        "0xE498cbC0F0ED0b9059FEc2a7F1275834108915B0"
      ],
      "transaction": {
        "from": "0x4b24116df4c31c40ab5b3cb3ba3ffe743a346978",
        "to": "0x2167d6df85bc76f22b7f150220740444dc257aaf",
        "gas": "0x18847",
        "value": "0x0",
        "input": "0x072d5d770000000000000000000000000000000000000000000000000000000000000001000000000000000000000000e498cbc0f0ed0b9059fec2a7f1275834108915b0",
        "nonce": "0xa",
        "chainId": "0xaa36a7"
      },
      "additionalContracts": [],
      "isFixedGasLimit": false
    }
  ],
  "receipts": [
    {
      "type": "0x2",
      "status": "0x1",
      "cumulativeGasUsed": "0x137b123",
      "logs": [
        {
          "address": "0x2167d6df85bc76f22b7f150220740444dc257aaf",
          "topics": [
            "0xbc7cd75a20ee27fd9adebab32041f755214dbc6bffa90cc0225b39da2e5c2d3b",
            "0x0000000000000000000000000f99e7ea74903afcb7224d0354fd7428a6f92917"
          ],
          "data": "0x",
          "blockHash": "0x87bffc44358ea58b74d4f3cd3b907b15ee5f3d91294839dbbaee9c0baa122c03",
          "blockNumber": "0xa8b9cb",
          "blockTimestamp": "0x6a2e7d14",
          "transactionHash": "0x7ba07cfc88e65563a2ed43746ae6ed4a07338d05934e57bd92cfd186e70ee1ed",
          "transactionIndex": "0xdd",
          "logIndex": "0x27a",
          "removed": false
        },
        {
          "address": "0x2167d6df85bc76f22b7f150220740444dc257aaf",
          "topics": [
            "0xce2f8c55f0f6fbc489417a09291281b739419d412c063df417ab075e6f052687"
          ],
          "data": "0x",
          "blockHash": "0x87bffc44358ea58b74d4f3cd3b907b15ee5f3d91294839dbbaee9c0baa122c03",
          "blockNumber": "0xa8b9cb",
          "blockTimestamp": "0x6a2e7d14",
          "transactionHash": "0x7ba07cfc88e65563a2ed43746ae6ed4a07338d05934e57bd92cfd186e70ee1ed",
          "transactionIndex": "0xdd",
          "logIndex": "0x27b",
          "removed": false
        },
        {
          "address": "0x2167d6df85bc76f22b7f150220740444dc257aaf",
          "topics": [
            "0x0d35bf721a39b614de00ca5038e1deb0cb0c69a278645e83405a7226cf80ba3c",
            "0x0000000000000000000000000000000000000000000000000000000000000000",
            "0x0000000000000000000000004b24116df4c31c40ab5b3cb3ba3ffe743a346978"
          ],
          "data": "0x00000000000000000000000000000000000000000000000000000000000000000000000000000000000000000000000100000000000000000000000000000001",
          "blockHash": "0x87bffc44358ea58b74d4f3cd3b907b15ee5f3d91294839dbbaee9c0baa122c03",
          "blockNumber": "0xa8b9cb",
          "blockTimestamp": "0x6a2e7d14",
          "transactionHash": "0x7ba07cfc88e65563a2ed43746ae6ed4a07338d05934e57bd92cfd186e70ee1ed",
          "transactionIndex": "0xdd",
          "logIndex": "0x27c",
          "removed": false
        },
        {
          "address": "0x2167d6df85bc76f22b7f150220740444dc257aaf",
          "topics": [
            "0xc7f505b2f371ae2175ee4913f4499e1f2633a7b5936321eed1cdaeb6115181d2"
          ],
          "data": "0x0000000000000000000000000000000000000000000000000000000000000001",
          "blockHash": "0x87bffc44358ea58b74d4f3cd3b907b15ee5f3d91294839dbbaee9c0baa122c03",
          "blockNumber": "0xa8b9cb",
          "blockTimestamp": "0x6a2e7d14",
          "transactionHash": "0x7ba07cfc88e65563a2ed43746ae6ed4a07338d05934e57bd92cfd186e70ee1ed",
          "transactionIndex": "0xdd",
          "logIndex": "0x27d",
          "removed": false
        },
        {
          "address": "0xd2a632d8a8b67c2c4398c255cbd7af8dd7236198",
          "topics": [
            "0x0a2c575ff341b41da136c9ccae74ec230a927a024d18f0dccf46d123f28f5f54",
            "0x0000000000000000000000004b24116df4c31c40ab5b3cb3ba3ffe743a346978",
            "0x0000000000000000000000002167d6df85bc76f22b7f150220740444dc257aaf"
          ],
          "data": "0xd2c0ec1779c639ba5672746b0a99f70401075e8ee85af8ed1a9d04488ac5f3910000000000000000000000000f99e7ea74903afcb7224d0354fd7428a6f92917",
          "blockHash": "0x87bffc44358ea58b74d4f3cd3b907b15ee5f3d91294839dbbaee9c0baa122c03",
          "blockNumber": "0xa8b9cb",
          "blockTimestamp": "0x6a2e7d14",
          "transactionHash": "0x7ba07cfc88e65563a2ed43746ae6ed4a07338d05934e57bd92cfd186e70ee1ed",
          "transactionIndex": "0xdd",
          "logIndex": "0x27e",
          "removed": false
        }
      ],
      "logsBloom": "0x000001000000000000100000000000004000000000000000000000000000000000000000000000040100000000000000000000000000000000000004000040000000000000000000000100400200020000000000000000000000000000000010000000000202800000000000000008000000000000000000000000000000000000000000000000000008000000000080000000001000800000000000000000000000000000001000000000c0000000000000000000000000000400000000000000000020000000000000800000000000000020200004000000000000000020000000000000000020000000000040000000000000000000000000000080000000",
      "transactionHash": "0x7ba07cfc88e65563a2ed43746ae6ed4a07338d05934e57bd92cfd186e70ee1ed",
      "transactionIndex": "0xdd",
      "blockHash": "0x87bffc44358ea58b74d4f3cd3b907b15ee5f3d91294839dbbaee9c0baa122c03",
      "blockNumber": "0xa8b9cb",
      "gasUsed": "0x2b004",
      "effectiveGasPrice": "0x3fbe72ef",
      "from": "0x4b24116df4c31c40ab5b3cb3ba3ffe743a346978",
      "to": "0xd2a632d8a8b67c2c4398c255cbd7af8dd7236198",
      "contractAddress": null
    },
    {
      "type": "0x2",
      "status": "0x1",
      "cumulativeGasUsed": "0x1470913",
      "logs": [
        {
          "address": "0xe498cbc0f0ed0b9059fec2a7f1275834108915b0",
          "topics": [
            "0x2f8788117e7eff1d82e926ec794901d17c78024a50270940304540a733656f0d",
            "0x0000000000000000000000000000000000000000000000000000000000000000",
            "0x0000000000000000000000004b24116df4c31c40ab5b3cb3ba3ffe743a346978",
            "0x0000000000000000000000004b24116df4c31c40ab5b3cb3ba3ffe743a346978"
          ],
          "data": "0x",
          "blockHash": "0x87bffc44358ea58b74d4f3cd3b907b15ee5f3d91294839dbbaee9c0baa122c03",
          "blockNumber": "0xa8b9cb",
          "blockTimestamp": "0x6a2e7d14",
          "transactionHash": "0x5ec8ffeee0c82ea42be1b7c7fcdfd7dc1f6ff41f4fd24950d84423009c65571e",
          "transactionIndex": "0xde",
          "logIndex": "0x27f",
          "removed": false
        },
        {
          "address": "0xe498cbc0f0ed0b9059fec2a7f1275834108915b0",
          "topics": [
            "0x2f8788117e7eff1d82e926ec794901d17c78024a50270940304540a733656f0d",
            "0x114e74f6ea3bd819998f78687bfcb11b140da08e9b7d222fa9c1f1ba1f2aa122",
            "0x0000000000000000000000004b24116df4c31c40ab5b3cb3ba3ffe743a346978",
            "0x0000000000000000000000004b24116df4c31c40ab5b3cb3ba3ffe743a346978"
          ],
          "data": "0x",
          "blockHash": "0x87bffc44358ea58b74d4f3cd3b907b15ee5f3d91294839dbbaee9c0baa122c03",
          "blockNumber": "0xa8b9cb",
          "blockTimestamp": "0x6a2e7d14",
          "transactionHash": "0x5ec8ffeee0c82ea42be1b7c7fcdfd7dc1f6ff41f4fd24950d84423009c65571e",
          "transactionIndex": "0xde",
          "logIndex": "0x280",
          "removed": false
        }
      ],
      "logsBloom": "0x00000004000000000000000000000000000000000000000000000000000000000000040000000000000000000000000000000000000000000000000000000000000000000000000000000000020000000000000000008000000000000000000000000000020000000000000000000800000000000000000000000040000000000000000000000000000000000000000000000000000000000000000000000000000040000000000000000040000000000000000000000000001400000001000000000000000000000000000000000000000000000000000100000000000020000000000004000000000000000000000000000000000000000000000000000000",
      "transactionHash": "0x5ec8ffeee0c82ea42be1b7c7fcdfd7dc1f6ff41f4fd24950d84423009c65571e",
      "transactionIndex": "0xde",
      "blockHash": "0x87bffc44358ea58b74d4f3cd3b907b15ee5f3d91294839dbbaee9c0baa122c03",
      "blockNumber": "0xa8b9cb",
      "gasUsed": "0xf57f0",
      "effectiveGasPrice": "0x3fbe72ef",
      "from": "0x4b24116df4c31c40ab5b3cb3ba3ffe743a346978",
      "to": null,
      "contractAddress": "0xe498cbc0f0ed0b9059fec2a7f1275834108915b0"
    },
    {
      "type": "0x2",
      "status": "0x1",
      "cumulativeGasUsed": "0x15954f5",
      "logs": [
        {
          "address": "0xe68f49f6256a2af1702855dc62b82aff6fd65f0e",
          "topics": [
            "0x74a88b186cc458e285362050fe7e4002b1a61f011a86294ddff3456e81da8ff2",
            "0x000000000000000000000000e498cbc0f0ed0b9059fec2a7f1275834108915b0"
          ],
          "data": "0x",
          "blockHash": "0x87bffc44358ea58b74d4f3cd3b907b15ee5f3d91294839dbbaee9c0baa122c03",
          "blockNumber": "0xa8b9cb",
          "blockTimestamp": "0x6a2e7d14",
          "transactionHash": "0x5c691156264189558506a707fdaef64df63e70f72ff44a1efdb37adda54287bd",
          "transactionIndex": "0xdf",
          "logIndex": "0x281",
          "removed": false
        }
      ],
      "logsBloom": "0x00000000000000000000000000000000000000000000000000000000000000000000000000000000000000000000000000000000000000000000000000000000000000000000000000000000080000000000000080000000000000000000000000000000000000000000000000000000000000000400000000000000000000000000000000000000000000000000000000000000000000000000000000000400000000000000100000000000000000000000000000002000000000000000000000000000000000000000000004000000000000004000000000000000000000000000000000000000000000000000000000000000000000000000000000080000",
      "transactionHash": "0x5c691156264189558506a707fdaef64df63e70f72ff44a1efdb37adda54287bd",
      "transactionIndex": "0xdf",
      "blockHash": "0x87bffc44358ea58b74d4f3cd3b907b15ee5f3d91294839dbbaee9c0baa122c03",
      "blockNumber": "0xa8b9cb",
      "gasUsed": "0x124be2",
      "effectiveGasPrice": "0x3fbe72ef",
      "from": "0x4b24116df4c31c40ab5b3cb3ba3ffe743a346978",
      "to": null,
      "contractAddress": "0xe68f49f6256a2af1702855dc62b82aff6fd65f0e"
    },
    {
      "type": "0x2",
      "status": "0x1",
      "cumulativeGasUsed": "0x159ca28",
      "logs": [
        {
          "address": "0xe498cbc0f0ed0b9059fec2a7f1275834108915b0",
          "topics": [
            "0xfe891c6ab12cf73707f8deb6600c12ba382e4cc31eb2b0a2754cad13075ed2d1"
          ],
          "data": "0x",
          "blockHash": "0x87bffc44358ea58b74d4f3cd3b907b15ee5f3d91294839dbbaee9c0baa122c03",
          "blockNumber": "0xa8b9cb",
          "blockTimestamp": "0x6a2e7d14",
          "transactionHash": "0xc4bb951883d208671c313844c41cd5ee2b63f11cda7146af082b2228a09f0289",
          "transactionIndex": "0xe0",
          "logIndex": "0x282",
          "removed": false
        }
      ],
      "logsBloom": "0x00000000000000000000000000000000000000000000000000000000000000000000040000000000000000000000000000000000000000000000000000000000000000000000000000000000000000000000000000008000000000000000000000000000000000000000000000000000000000000000000000000000000000000800000000000000000000000000000000000000000000000000000000000000000040000000000000000000000000000000000400000000000000000000000000000000000000000000000000000000000000000000000000000000000000010000000000000000000000000000000000000000000000000000000000000000",
      "transactionHash": "0xc4bb951883d208671c313844c41cd5ee2b63f11cda7146af082b2228a09f0289",
      "transactionIndex": "0xe0",
      "blockHash": "0x87bffc44358ea58b74d4f3cd3b907b15ee5f3d91294839dbbaee9c0baa122c03",
      "blockNumber": "0xa8b9cb",
      "gasUsed": "0x7533",
      "effectiveGasPrice": "0x3fbe72ef",
      "from": "0x4b24116df4c31c40ab5b3cb3ba3ffe743a346978",
      "to": "0xe498cbc0f0ed0b9059fec2a7f1275834108915b0",
      "contractAddress": null
    },
    {
      "type": "0x2",
      "status": "0x1",
      "cumulativeGasUsed": "0x15a823c",
      "logs": [
        {
          "address": "0xe498cbc0f0ed0b9059fec2a7f1275834108915b0",
          "topics": [
            "0xfe891c6ab12cf73707f8deb6600c12ba382e4cc31eb2b0a2754cad13075ed2d1"
          ],
          "data": "0x",
          "blockHash": "0x87bffc44358ea58b74d4f3cd3b907b15ee5f3d91294839dbbaee9c0baa122c03",
          "blockNumber": "0xa8b9cb",
          "blockTimestamp": "0x6a2e7d14",
          "transactionHash": "0x9b180ffd434c5b9d17926774956b10726452dba2203e0d232f5b73cc79582438",
          "transactionIndex": "0xe1",
          "logIndex": "0x283",
          "removed": false
        }
      ],
      "logsBloom": "0x00000000000000000000000000000000000000000000000000000000000000000000040000000000000000000000000000000000000000000000000000000000000000000000000000000000000000000000000000008000000000000000000000000000000000000000000000000000000000000000000000000000000000000800000000000000000000000000000000000000000000000000000000000000000040000000000000000000000000000000000400000000000000000000000000000000000000000000000000000000000000000000000000000000000000010000000000000000000000000000000000000000000000000000000000000000",
      "transactionHash": "0x9b180ffd434c5b9d17926774956b10726452dba2203e0d232f5b73cc79582438",
      "transactionIndex": "0xe1",
      "blockHash": "0x87bffc44358ea58b74d4f3cd3b907b15ee5f3d91294839dbbaee9c0baa122c03",
      "blockNumber": "0xa8b9cb",
      "gasUsed": "0xb814",
      "effectiveGasPrice": "0x3fbe72ef",
      "from": "0x4b24116df4c31c40ab5b3cb3ba3ffe743a346978",
      "to": "0xe498cbc0f0ed0b9059fec2a7f1275834108915b0",
      "contractAddress": null
    },
    {
      "type": "0x2",
      "status": "0x1",
      "cumulativeGasUsed": "0x15b8e76",
      "logs": [
        {
          "address": "0x2167d6df85bc76f22b7f150220740444dc257aaf",
          "topics": [
            "0x0d35bf721a39b614de00ca5038e1deb0cb0c69a278645e83405a7226cf80ba3c",
            "0x0000000000000000000000000000000000000000000000000000000000000000",
            "0x000000000000000000000000e498cbc0f0ed0b9059fec2a7f1275834108915b0"
          ],
          "data": "0x00000000000000000000000000000000000000000000000000000000000000000000000000000000000000000000000000000000000000000000000000000001",
          "blockHash": "0x87bffc44358ea58b74d4f3cd3b907b15ee5f3d91294839dbbaee9c0baa122c03",
          "blockNumber": "0xa8b9cb",
          "blockTimestamp": "0x6a2e7d14",
          "transactionHash": "0xf2d9039500b41a186b36d498a9c12216d7d9ee3914315037e563739723158023",
          "transactionIndex": "0xe2",
          "logIndex": "0x284",
          "removed": false
        }
      ],
      "logsBloom": "0x00000000000000000010000000000000000000000000000000000000000000000000000000000000000000000000000000000000000000000000000000004000000000000000000000010000000000000000000080000000000000000000000000000000020000000000000000000800000000000400000000000000000000000000000000000000000000000000000000000000000000000000000000000000000000000000100000000000000000000000000000000000000000000000000000000000000000000000800000000000000020000000000000000000000020000000000000000020000000000000000000000000000000000000000000000000",
      "transactionHash": "0xf2d9039500b41a186b36d498a9c12216d7d9ee3914315037e563739723158023",
      "transactionIndex": "0xe2",
      "blockHash": "0x87bffc44358ea58b74d4f3cd3b907b15ee5f3d91294839dbbaee9c0baa122c03",
      "blockNumber": "0xa8b9cb",
      "gasUsed": "0x10c3a",
      "effectiveGasPrice": "0x3fbe72ef",
      "from": "0x4b24116df4c31c40ab5b3cb3ba3ffe743a346978",
      "to": "0x2167d6df85bc76f22b7f150220740444dc257aaf",
      "contractAddress": null
    }
  ],
  "libraries": [],
  "pending": [],
  "returns": {},
  "timestamp": 1781431572777,
  "chain": 11155111,
  "commit": "848bce1"
}